{
  "_format": "hh-sol-artifact-1",
  "contractName": "LostAndFound",
  "sourceName": "contracts/LostAndFound.sol",
  "abi": [
    {
      "anonymous": false,
      "inputs": [
        {
          "indexed": true,
          "internalType": "uint256",
          "name": "id",
          "type": "uint256"
        },
        {
          "indexed": false,
          "internalType": "address",
          "name": "reporter",
          "type": "address"
        },
        {
          "indexed": false,
          "internalType": "string",
          "name": "name",
          "type": "string"
        }
      ],
      "name": "ItemReported",
      "type": "event"
    },
    {
      "inputs": [],
      "name": "getItemCount",
      "outputs": [
        {
          "internalType": "uint256",
          "name": "",
          "type": "uint256"
        }
      ],
      "stateMutability": "view",
      "type": "function"
    },
    {
      "inputs": [
        {
          "internalType": "uint256",
          "name": "_id",
          "type": "uint256"
        }
      ],
      "name": "getLostItem",
      "outputs": [
        {
          "internalType": "uint256",
          "name": "id",
          "type": "uint256"
        },
        {
          "internalType": "address",
          "name": "reporter",
          "type": "address"
        },
        {
          "internalType": "string",
          "name": "name",
          "type": "string"
        },
        {
          "internalType": "string",
          "name": "description",
          "type": "string"
        },
        {
          "internalType": "string",
          "name": "location",
          "type": "string"
        },
        {
          "internalType": "string",
          "name": "contact",
          "type": "string"
        },
        {
          "internalType": "bool",
          "name": "isFound",
          "type": "bool"
        },
        {
          "internalType": "uint256",
          "name": "timestamp",
          "type": "uint256"
        }
      ],
      "stateMutability": "view",
      "type": "function"
    },
    {
      "inputs": [],
      "name": "itemCount",
      "outputs": [
        {
          "internalType": "uint256",
          "name": "",
          "type": "uint256"
        }
      ],
      "stateMutability": "view",
      "type": "function"
    },
    {
      "inputs": [
        {
          "internalType": "uint256",
          "name": "",
          "type": "uint256"
        }
      ],
      "name": "lostItems",
      "outputs": [
        {
          "internalType": "uint256",
          "name": "id",
          "type": "uint256"
        },
        {
          "internalType": "address",
          "name": "reporter",
          "type": "address"
        },
        {
          "internalType": "string",
          "name": "name",
          "type": "string"
        },
        {
          "internalType": "string",
          "name": "description",
          "type": "string"
        },
        {
          "internalType": "string",
          "name": "location",
          "type": "string"
        },
        {
          "internalType": "string",
          "name": "contact",
          "type": "string"
        },
        {
          "internalType": "bool",
          "name": "isFound",
          "type": "bool"
        },
        {
          "internalType": "uint256",
          "name": "timestamp",
          "type": "uint256"
        }
      ],
      "stateMutability": "view",
      "type": "function"
    },
    {
      "inputs": [
        {
          "internalType": "string",
          "name": "_name",
          "type": "string"
        },
        {
          "internalType": "string",
          "name": "_description",
          "type": "string"
        },
        {
          "internalType": "string",
          "name": "_location",
          "type": "string"
        },
        {
          "internalType": "string",
          "name": "_contact",
          "type": "string"
        }
      ],
      "name": "reportLostItem",
      "outputs": [],
      "stateMutability": "nonpayable",
      "type": "function"
    }
  ],
  "bytecode": "0x608060405234801561001057600080fd5b5061108d806100206000396000f3fe608060405234801561001057600080fd5b50600436106100575760003560e01c80634a2d10d01461005c578063671214bf146100935780636bfb0d01146100af5780637749cf23146100cd5780639e8d43a2146100eb575b600080fd5b610076600480360381019061007191906108e9565b610122565b60405161008a989796959493929190610a11565b60405180910390f35b6100ad60048036038101906100a89190610be0565b610461565b005b6100b76105fa565b6040516100c49190610cb7565b60405180910390f35b6100d5610600565b6040516100e29190610cb7565b60405180910390f35b610105600480360381019061010091906108e9565b61060a565b604051610119989796959493929190610a11565b60405180910390f35b60008060608060608060008060008060008b815260200190815260200160002060405180610100016040529081600082015481526020016001820160009054906101000a900473ffffffffffffffffffffffffffffffffffffffff1673ffffffffffffffffffffffffffffffffffffffff1673ffffffffffffffffffffffffffffffffffffffff1681526020016002820180546101be90610d01565b80601f01602080910402602001604051908101604052809291908181526020018280546101ea90610d01565b80156102375780601f1061020c57610100808354040283529160200191610237565b820191906000526020600020905b81548152906001019060200180831161021a57829003601f168201915b5050505050815260200160038201805461025090610d01565b80601f016020809104026020016040519081016040528092919081815260200182805461027c90610d01565b80156102c95780601f1061029e576101008083540402835291602001916102c9565b820191906000526020600020905b8154815290600101906020018083116102ac57829003601f168201915b505050505081526020016004820180546102e290610d01565b80601f016020809104026020016040519081016040528092919081815260200182805461030e90610d01565b801561035b5780601f106103305761010080835404028352916020019161035b565b820191906000526020600020905b81548152906001019060200180831161033e57829003601f168201915b5050505050815260200160058201805461037490610d01565b80601f01602080910402602001604051908101604052809291908181526020018280546103a090610d01565b80156103ed5780601f106103c2576101008083540402835291602001916103ed565b820191906000526020600020905b8154815290600101906020018083116103d057829003601f168201915b505050505081526020016006820160009054906101000a900460ff161515151581526020016007820154815250509050806000015181602001518260400151836060015184608001518560a001518660c001518760e001519850985098509850985098509850985050919395975091939597565b6001600081548092919061047490610d61565b919050555060405180610100016040528060015481526020013373ffffffffffffffffffffffffffffffffffffffff1681526020018581526020018481526020018381526020018281526020016000151581526020014281525060008060015481526020019081526020016000206000820151816000015560208201518160010160006101000a81548173ffffffffffffffffffffffffffffffffffffffff021916908373ffffffffffffffffffffffffffffffffffffffff16021790555060408201518160020190816105489190610f55565b50606082015181600301908161055e9190610f55565b5060808201518160040190816105749190610f55565b5060a082015181600501908161058a9190610f55565b5060c08201518160060160006101000a81548160ff02191690831515021790555060e082015181600701559050506001547fa2f12a929555c86512df4afffcb9b220bd57ee1d2e90becdd57609dd56d8b66933866040516105ec929190611027565b60405180910390a250505050565b60015481565b6000600154905090565b60006020528060005260406000206000915090508060000154908060010160009054906101000a900473ffffffffffffffffffffffffffffffffffffffff169080600201805461065990610d01565b80601f016020809104026020016040519081016040528092919081815260200182805461068590610d01565b80156106d25780601f106106a7576101008083540402835291602001916106d2565b820191906000526020600020905b8154815290600101906020018083116106b557829003601f168201915b5050505050908060030180546106e790610d01565b80601f016020809104026020016040519081016040528092919081815260200182805461071390610d01565b80156107605780601f1061073557610100808354040283529160200191610760565b820191906000526020600020905b81548152906001019060200180831161074357829003601f168201915b50505050509080600401805461077590610d01565b80601f01602080910402602001604051908101604052809291908181526020018280546107a190610d01565b80156107ee5780601f106107c3576101008083540402835291602001916107ee565b820191906000526020600020905b8154815290600101906020018083116107d157829003601f168201915b50505050509080600501805461080390610d01565b80601f016020809104026020016040519081016040528092919081815260200182805461082f90610d01565b801561087c5780601f106108515761010080835404028352916020019161087c565b820191906000526020600020905b81548152906001019060200180831161085f57829003601f168201915b5050505050908060060160009054906101000a900460ff16908060070154905088565b6000604051905090565b600080fd5b600080fd5b6000819050919050565b6108c6816108b3565b81146108d157600080fd5b50565b6000813590506108e3816108bd565b92915050565b6000602082840312156108ff576108fe6108a9565b5b600061090d848285016108d4565b91505092915050565b61091f816108b3565b82525050565b600073ffffffffffffffffffffffffffffffffffffffff82169050919050565b600061095082610925565b9050919050565b61096081610945565b82525050565b600081519050919050565b600082825260208201905092915050565b60005b838110156109a0578082015181840152602081019050610985565b60008484015250505050565b6000601f19601f8301169050919050565b60006109c882610966565b6109d28185610971565b93506109e2818560208601610982565b6109eb816109ac565b840191505092915050565b60008115159050919050565b610a0b816109f6565b82525050565b600061010082019050610a27600083018b610916565b610a34602083018a610957565b8181036040830152610a4681896109bd565b90508181036060830152610a5a81886109bd565b90508181036080830152610a6e81876109bd565b905081810360a0830152610a8281866109bd565b9050610a9160c0830185610a02565b610a9e60e0830184610916565b9998505050505050505050565b600080fd5b600080fd5b7f4e487b7100000000000000000000000000000000000000000000000000000000600052604160045260246000fd5b610aed826109ac565b810181811067ffffffffffffffff82111715610b0c57610b0b610ab5565b5b80604052505050565b6000610b1f61089f565b9050610b2b8282610ae4565b919050565b600067ffffffffffffffff821115610b4b57610b4a610ab5565b5b610b54826109ac565b9050602081019050919050565b82818337600083830152505050565b6000610b83610b7e84610b30565b610b15565b905082815260208101848484011115610b9f57610b9e610ab0565b5b610baa848285610b61565b509392505050565b600082601f830112610bc757610bc6610aab565b5b8135610bd7848260208601610b70565b91505092915050565b60008060008060808587031215610bfa57610bf96108a9565b5b600085013567ffffffffffffffff811115610c1857610c176108ae565b5b610c2487828801610bb2565b945050602085013567ffffffffffffffff811115610c4557610c446108ae565b5b610c5187828801610bb2565b935050604085013567ffffffffffffffff811115610c7257610c716108ae565b5b610c7e87828801610bb2565b925050606085013567ffffffffffffffff811115610c9f57610c9e6108ae565b5b610cab87828801610bb2565b91505092959194509250565b6000602082019050610ccc6000830184610916565b92915050565b7f4e487b7100000000000000000000000000000000000000000000000000000000600052602260045260246000fd5b60006002820490506001821680610d1957607f821691505b602082108103610d2c57610d2b610cd2565b5b50919050565b7f4e487b7100000000000000000000000000000000000000000000000000000000600052601160045260246000fd5b6000610d6c826108b3565b91507fffffffffffffffffffffffffffffffffffffffffffffffffffffffffffffffff8203610d9e57610d9d610d32565b5b600182019050919050565b60008190508160005260206000209050919050565b60006020601f8301049050919050565b600082821b905092915050565b600060088302610e0b7fffffffffffffffffffffffffffffffffffffffffffffffffffffffffffffffff82610dce565b610e158683610dce565b95508019841693508086168417925050509392505050565b6000819050919050565b6000610e52610e4d610e48846108b3565b610e2d565b6108b3565b9050919050565b6000819050919050565b610e6c83610e37565b610e80610e7882610e59565b848454610ddb565b825550505050565b600090565b610e95610e88565b610ea0818484610e63565b505050565b5b81811015610ec457610eb9600082610e8d565b600181019050610ea6565b5050565b601f821115610f0957610eda81610da9565b610ee384610dbe565b81016020851015610ef2578190505b610f06610efe85610dbe565b830182610ea5565b50505b505050565b600082821c905092915050565b6000610f2c60001984600802610f0e565b1980831691505092915050565b6000610f458383610f1b565b9150826002028217905092915050565b610f5e82610966565b67ffffffffffffffff811115610f7757610f76610ab5565b5b610f818254610d01565b610f8c828285610ec8565b600060209050601f831160018114610fbf5760008415610fad578287015190505b610fb78582610f39565b86555061101f565b601f198416610fcd86610da9565b60005b82811015610ff557848901518255600182019150602085019450602081019050610fd0565b86831015611012578489015161100e601f891682610f1b565b8355505b6001600288020188555050505b505050505050565b600060408201905061103c6000830185610957565b818103602083015261104e81846109bd565b9050939250505056fea26469706673582212205294842c6edbbaddfe5110a6560fd831a8f4e72f570693596cb121e4addf355b64736f6c63430008130033",
  "linkReferences": {},
  "deployedLinkReferences": {}
}