{
  "_format": "hh-sol-artifact-1",
  "contractName": "LostAndFound",
  "sourceName": "contracts/LostAndFound.sol",
  "abi": [
    {
      "anonymous": false,
      "inputs": [
        {
          "indexed": true,
          "internalType": "uint256",
          "name": "id",
          "type": "uint256"
        },
        {
          "indexed": false,
          "internalType": "address",
          "name": "finder",
          "type": "address"
        },
        {
          "indexed": false,
          "internalType": "string",
          "name": "foundLocation",
          "type": "string"
        }
      ],
      "name": "ItemFound",
      "type": "event"
    },
    {
      "anonymous": false,
      "inputs": [
        {
          "indexed": true,
          "internalType": "uint256",
          "name": "id",
          "type": "uint256"
        },
        {
          "indexed": false,
          "internalType": "address",
          "name": "reporter",
          "type": "address"
        },
        {
          "indexed": false,
          "internalType": "string",
          "name": "name",
          "type": "string"
        }
      ],
      "name": "ItemReported",
      "type": "event"
    },
    {
      "anonymous": false,
      "inputs": [
        {
          "indexed": true,
          "internalType": "uint256",
          "name": "notificationId",
          "type": "uint256"
        },
        {
          "indexed": true,
          "internalType": "address",
          "name": "receiver",
          "type": "address"
        },
        {
          "indexed": false,
          "internalType": "uint256",
          "name": "itemId",
          "type": "uint256"
        }
      ],
      "name": "NotificationCreated",
      "type": "event"
    },
    {
      "inputs": [],
      "name": "getItemCount",
      "outputs": [
        {
          "internalType": "uint256",
          "name": "",
          "type": "uint256"
        }
      ],
      "stateMutability": "view",
      "type": "function"
    },
    {
      "inputs": [
        {
          "internalType": "uint256",
          "name": "_id",
          "type": "uint256"
        }
      ],
      "name": "getLostItem",
      "outputs": [
        {
          "internalType": "uint256",
          "name": "id",
          "type": "uint256"
        },
        {
          "internalType": "address",
          "name": "reporter",
          "type": "address"
        },
        {
          "internalType": "string",
          "name": "name",
          "type": "string"
        },
        {
          "internalType": "string",
          "name": "description",
          "type": "string"
        },
        {
          "internalType": "string",
          "name": "location",
          "type": "string"
        },
        {
          "internalType": "string",
          "name": "contact",
          "type": "string"
        },
        {
          "internalType": "bool",
          "name": "isFound",
          "type": "bool"
        },
        {
          "internalType": "uint256",
          "name": "timestamp",
          "type": "uint256"
        }
      ],
      "stateMutability": "view",
      "type": "function"
    },
    {
      "inputs": [
        {
          "internalType": "address",
          "name": "_user",
          "type": "address"
        }
      ],
      "name": "getUserNotifications",
      "outputs": [
        {
          "components": [
            {
              "internalType": "uint256",
              "name": "id",
              "type": "uint256"
            },
            {
              "internalType": "uint256",
              "name": "itemId",
              "type": "uint256"
            },
            {
              "internalType": "address",
              "name": "finder",
              "type": "address"
            },
            {
              "internalType": "address",
              "name": "receiver",
              "type": "address"
            },
            {
              "internalType": "string",
              "name": "message",
              "type": "string"
            },
            {
              "internalType": "string",
              "name": "finderContact",
              "type": "string"
            },
            {
              "internalType": "bool",
              "name": "isRead",
              "type": "bool"
            },
            {
              "internalType": "uint256",
              "name": "timestamp",
              "type": "uint256"
            }
          ],
          "internalType": "struct LostAndFound.Notification[]",
          "name": "",
          "type": "tuple[]"
        }
      ],
      "stateMutability": "view",
      "type": "function"
    },
    {
      "inputs": [],
      "name": "itemCount",
      "outputs": [
        {
          "internalType": "uint256",
          "name": "",
          "type": "uint256"
        }
      ],
      "stateMutability": "view",
      "type": "function"
    },
    {
      "inputs": [
        {
          "internalType": "uint256",
          "name": "",
          "type": "uint256"
        }
      ],
      "name": "lostItems",
      "outputs": [
        {
          "internalType": "uint256",
          "name": "id",
          "type": "uint256"
        },
        {
          "internalType": "address",
          "name": "reporter",
          "type": "address"
        },
        {
          "internalType": "string",
          "name": "name",
          "type": "string"
        },
        {
          "internalType": "string",
          "name": "description",
          "type": "string"
        },
        {
          "internalType": "string",
          "name": "location",
          "type": "string"
        },
        {
          "internalType": "string",
          "name": "contact",
          "type": "string"
        },
        {
          "internalType": "bool",
          "name": "isFound",
          "type": "bool"
        },
        {
          "internalType": "uint256",
          "name": "timestamp",
          "type": "uint256"
        }
      ],
      "stateMutability": "view",
      "type": "function"
    },
    {
      "inputs": [
        {
          "internalType": "uint256",
          "name": "_itemId",
          "type": "uint256"
        },
        {
          "internalType": "string",
          "name": "_foundDetails",
          "type": "string"
        },
        {
          "internalType": "string",
          "name": "_foundLocation",
          "type": "string"
        },
        {
          "internalType": "string",
          "name": "_finderContact",
          "type": "string"
        }
      ],
      "name": "markItemAsFound",
      "outputs": [],
      "stateMutability": "nonpayable",
      "type": "function"
    },
    {
      "inputs": [
        {
          "internalType": "uint256",
          "name": "_notificationId",
          "type": "uint256"
        }
      ],
      "name": "markNotificationAsRead",
      "outputs": [],
      "stateMutability": "nonpayable",
      "type": "function"
    },
    {
      "inputs": [],
      "name": "notificationCount",
      "outputs": [
        {
          "internalType": "uint256",
          "name": "",
          "type": "uint256"
        }
      ],
      "stateMutability": "view",
      "type": "function"
    },
    {
      "inputs": [
        {
          "internalType": "uint256",
          "name": "",
          "type": "uint256"
        }
      ],
      "name": "notifications",
      "outputs": [
        {
          "internalType": "uint256",
          "name": "id",
          "type": "uint256"
        },
        {
          "internalType": "uint256",
          "name": "itemId",
          "type": "uint256"
        },
        {
          "internalType": "address",
          "name": "finder",
          "type": "address"
        },
        {
          "internalType": "address",
          "name": "receiver",
          "type": "address"
        },
        {
          "internalType": "string",
          "name": "message",
          "type": "string"
        },
        {
          "internalType": "string",
          "name": "finderContact",
          "type": "string"
        },
        {
          "internalType": "bool",
          "name": "isRead",
          "type": "bool"
        },
        {
          "internalType": "uint256",
          "name": "timestamp",
          "type": "uint256"
        }
      ],
      "stateMutability": "view",
      "type": "function"
    },
    {
      "inputs": [
        {
          "internalType": "string",
          "name": "_name",
          "type": "string"
        },
        {
          "internalType": "string",
          "name": "_description",
          "type": "string"
        },
        {
          "internalType": "string",
          "name": "_location",
          "type": "string"
        },
        {
          "internalType": "string",
          "name": "_contact",
          "type": "string"
        }
      ],
      "name": "reportLostItem",
      "outputs": [],
      "stateMutability": "nonpayable",
      "type": "function"
    },
    {
      "inputs": [
        {
          "internalType": "address",
          "name": "",
          "type": "address"
        },
        {
          "internalType": "uint256",
          "name": "",
          "type": "uint256"
        }
      ],
      "name": "userNotifications",
      "outputs": [
        {
          "internalType": "uint256",
          "name": "",
          "type": "uint256"
        }
      ],
      "stateMutability": "view",
      "type": "function"
    }
  ],
  "bytecode": "0x608060405234801561001057600080fd5b50612223806100206000396000f3fe608060405234801561001057600080fd5b50600436106100a95760003560e01c80636bfb0d01116100715780636bfb0d011461019857806371342f0c146101b65780637749cf23146101d457806399f9b888146101f25780639e8d43a21461020e578063d3fc00de14610245576100a9565b806334c1f944146100ae57806338c91910146100e55780634a2d10d01461011557806357f313581461014c578063671214bf1461017c575b600080fd5b6100c860048036038101906100c391906114ae565b610261565b6040516100dc9897969594939291906115d6565b60405180910390f35b6100ff60048036038101906100fa919061168e565b610406565b60405161010c91906116ce565b60405180910390f35b61012f600480360381019061012a91906114ae565b610437565b6040516101439897969594939291906116e9565b60405180910390f35b61016660048036038101906101619190611783565b610776565b60405161017391906119a0565b60405180910390f35b61019660048036038101906101919190611af7565b610aa7565b005b6101a0610c40565b6040516101ad91906116ce565b60405180910390f35b6101be610c46565b6040516101cb91906116ce565b60405180910390f35b6101dc610c4c565b6040516101e991906116ce565b60405180910390f35b61020c600480360381019061020791906114ae565b610c56565b005b610228600480360381019061022391906114ae565b610d7c565b60405161023c9897969594939291906116e9565b60405180910390f35b61025f600480360381019061025a9190611bce565b611011565b005b60016020528060005260406000206000915090508060000154908060010154908060020160009054906101000a900473ffffffffffffffffffffffffffffffffffffffff16908060030160009054906101000a900473ffffffffffffffffffffffffffffffffffffffff16908060040180546102dc90611cb8565b80601f016020809104026020016040519081016040528092919081815260200182805461030890611cb8565b80156103555780601f1061032a57610100808354040283529160200191610355565b820191906000526020600020905b81548152906001019060200180831161033857829003601f168201915b50505050509080600501805461036a90611cb8565b80601f016020809104026020016040519081016040528092919081815260200182805461039690611cb8565b80156103e35780601f106103b8576101008083540402835291602001916103e3565b820191906000526020600020905b8154815290600101906020018083116103c657829003601f168201915b5050505050908060060160009054906101000a900460ff16908060070154905088565b6002602052816000526040600020818154811061042257600080fd5b90600052602060002001600091509150505481565b60008060608060608060008060008060008b815260200190815260200160002060405180610100016040529081600082015481526020016001820160009054906101000a900473ffffffffffffffffffffffffffffffffffffffff1673ffffffffffffffffffffffffffffffffffffffff1673ffffffffffffffffffffffffffffffffffffffff1681526020016002820180546104d390611cb8565b80601f01602080910402602001604051908101604052809291908181526020018280546104ff90611cb8565b801561054c5780601f106105215761010080835404028352916020019161054c565b820191906000526020600020905b81548152906001019060200180831161052f57829003601f168201915b5050505050815260200160038201805461056590611cb8565b80601f016020809104026020016040519081016040528092919081815260200182805461059190611cb8565b80156105de5780601f106105b3576101008083540402835291602001916105de565b820191906000526020600020905b8154815290600101906020018083116105c157829003601f168201915b505050505081526020016004820180546105f790611cb8565b80601f016020809104026020016040519081016040528092919081815260200182805461062390611cb8565b80156106705780601f1061064557610100808354040283529160200191610670565b820191906000526020600020905b81548152906001019060200180831161065357829003601f168201915b5050505050815260200160058201805461068990611cb8565b80601f01602080910402602001604051908101604052809291908181526020018280546106b590611cb8565b80156107025780601f106106d757610100808354040283529160200191610702565b820191906000526020600020905b8154815290600101906020018083116106e557829003601f168201915b505050505081526020016006820160009054906101000a900460ff161515151581526020016007820154815250509050806000015181602001518260400151836060015184608001518560a001518660c001518760e001519850985098509850985098509850985050919395975091939597565b60606000600260008473ffffffffffffffffffffffffffffffffffffffff1673ffffffffffffffffffffffffffffffffffffffff16815260200190815260200160002090506000818054905067ffffffffffffffff8111156107db576107da6119cc565b5b60405190808252806020026020018201604052801561081457816020015b6108016113f1565b8152602001906001900390816107f95790505b50905060005b8280549050811015610a9c576001600084838154811061083d5761083c611ce9565b5b906000526020600020015481526020019081526020016000206040518061010001604052908160008201548152602001600182015481526020016002820160009054906101000a900473ffffffffffffffffffffffffffffffffffffffff1673ffffffffffffffffffffffffffffffffffffffff1673ffffffffffffffffffffffffffffffffffffffff1681526020016003820160009054906101000a900473ffffffffffffffffffffffffffffffffffffffff1673ffffffffffffffffffffffffffffffffffffffff1673ffffffffffffffffffffffffffffffffffffffff16815260200160048201805461093290611cb8565b80601f016020809104026020016040519081016040528092919081815260200182805461095e90611cb8565b80156109ab5780601f10610980576101008083540402835291602001916109ab565b820191906000526020600020905b81548152906001019060200180831161098e57829003601f168201915b505050505081526020016005820180546109c490611cb8565b80601f01602080910402602001604051908101604052809291908181526020018280546109f090611cb8565b8015610a3d5780601f10610a1257610100808354040283529160200191610a3d565b820191906000526020600020905b815481529060010190602001808311610a2057829003601f168201915b505050505081526020016006820160009054906101000a900460ff16151515158152602001600782015481525050828281518110610a7e57610a7d611ce9565b5b60200260200101819052508080610a9490611d47565b91505061081a565b508092505050919050565b60036000815480929190610aba90611d47565b919050555060405180610100016040528060035481526020013373ffffffffffffffffffffffffffffffffffffffff1681526020018581526020018481526020018381526020018281526020016000151581526020014281525060008060035481526020019081526020016000206000820151816000015560208201518160010160006101000a81548173ffffffffffffffffffffffffffffffffffffffff021916908373ffffffffffffffffffffffffffffffffffffffff1602179055506040820151816002019081610b8e9190611f3b565b506060820151816003019081610ba49190611f3b565b506080820151816004019081610bba9190611f3b565b5060a0820151816005019081610bd09190611f3b565b5060c08201518160060160006101000a81548160ff02191690831515021790555060e082015181600701559050506003547fa2f12a929555c86512df4afffcb9b220bd57ee1d2e90becdd57609dd56d8b6693386604051610c3292919061200d565b60405180910390a250505050565b60035481565b60045481565b6000600354905090565b600081118015610c6857506004548111155b610ca7576040517f08c379a0000000000000000000000000000000000000000000000000000000008152600401610c9e90612089565b60405180910390fd5b3373ffffffffffffffffffffffffffffffffffffffff166001600083815260200190815260200160002060030160009054906101000a900473ffffffffffffffffffffffffffffffffffffffff1673ffffffffffffffffffffffffffffffffffffffff1614610d4b576040517f08c379a0000000000000000000000000000000000000000000000000000000008152600401610d42906120f5565b60405180910390fd5b600180600083815260200190815260200160002060060160006101000a81548160ff02191690831515021790555050565b60006020528060005260406000206000915090508060000154908060010160009054906101000a900473ffffffffffffffffffffffffffffffffffffffff1690806002018054610dcb90611cb8565b80601f0160208091040260200160405190810160405280929190818152602001828054610df790611cb8565b8015610e445780601f10610e1957610100808354040283529160200191610e44565b820191906000526020600020905b815481529060010190602001808311610e2757829003601f168201915b505050505090806003018054610e5990611cb8565b80601f0160208091040260200160405190810160405280929190818152602001828054610e8590611cb8565b8015610ed25780601f10610ea757610100808354040283529160200191610ed2565b820191906000526020600020905b815481529060010190602001808311610eb557829003601f168201915b505050505090806004018054610ee790611cb8565b80601f0160208091040260200160405190810160405280929190818152602001828054610f1390611cb8565b8015610f605780601f10610f3557610100808354040283529160200191610f60565b820191906000526020600020905b815481529060010190602001808311610f4357829003601f168201915b505050505090806005018054610f7590611cb8565b80601f0160208091040260200160405190810160405280929190818152602001828054610fa190611cb8565b8015610fee5780601f10610fc357610100808354040283529160200191610fee565b820191906000526020600020905b815481529060010190602001808311610fd157829003601f168201915b5050505050908060060160009054906101000a900460ff16908060070154905088565b60008411801561102357506003548411155b611062576040517f08c379a000000000000000000000000000000000000000000000000000000000815260040161105990612161565b60405180910390fd5b60008085815260200190815260200160002060060160009054906101000a900460ff16156110c5576040517f08c379a00000000000000000000000000000000000000000000000000000000081526004016110bc906121cd565b60405180910390fd5b60008060008681526020019081526020016000209050600460008154809291906110ee90611d47565b919050555060405180610100016040528060045481526020018681526020013373ffffffffffffffffffffffffffffffffffffffff1681526020018260010160009054906101000a900473ffffffffffffffffffffffffffffffffffffffff1673ffffffffffffffffffffffffffffffffffffffff16815260200185815260200183815260200160001515815260200142815250600160006004548152602001908152602001600020600082015181600001556020820151816001015560408201518160020160006101000a81548173ffffffffffffffffffffffffffffffffffffffff021916908373ffffffffffffffffffffffffffffffffffffffff16021790555060608201518160030160006101000a81548173ffffffffffffffffffffffffffffffffffffffff021916908373ffffffffffffffffffffffffffffffffffffffff160217905550608082015181600401908161124e9190611f3b565b5060a08201518160050190816112649190611f3b565b5060c08201518160060160006101000a81548160ff02191690831515021790555060e08201518160070155905050600260008260010160009054906101000a900473ffffffffffffffffffffffffffffffffffffffff1673ffffffffffffffffffffffffffffffffffffffff1673ffffffffffffffffffffffffffffffffffffffff168152602001908152602001600020600454908060018154018082558091505060019003906000526020600020016000909190919091505560018160060160006101000a81548160ff021916908315150217905550847f7b55f6a33020ec257c6e90eb988e4005e14e3d6240348fcb44952e60be46c843338560405161136d92919061200d565b60405180910390a28060010160009054906101000a900473ffffffffffffffffffffffffffffffffffffffff1673ffffffffffffffffffffffffffffffffffffffff166004547f17d732b8f5f346b1808398f13b2d81d0f7fcff7f7eb53cdf3dc32b8f56a4b294876040516113e291906116ce565b60405180910390a35050505050565b6040518061010001604052806000815260200160008152602001600073ffffffffffffffffffffffffffffffffffffffff168152602001600073ffffffffffffffffffffffffffffffffffffffff1681526020016060815260200160608152602001600015158152602001600081525090565b6000604051905090565b600080fd5b600080fd5b6000819050919050565b61148b81611478565b811461149657600080fd5b50565b6000813590506114a881611482565b92915050565b6000602082840312156114c4576114c361146e565b5b60006114d284828501611499565b91505092915050565b6114e481611478565b82525050565b600073ffffffffffffffffffffffffffffffffffffffff82169050919050565b6000611515826114ea565b9050919050565b6115258161150a565b82525050565b600081519050919050565b600082825260208201905092915050565b60005b8381101561156557808201518184015260208101905061154a565b60008484015250505050565b6000601f19601f8301169050919050565b600061158d8261152b565b6115978185611536565b93506115a7818560208601611547565b6115b081611571565b840191505092915050565b60008115159050919050565b6115d0816115bb565b82525050565b6000610100820190506115ec600083018b6114db565b6115f9602083018a6114db565b611606604083018961151c565b611613606083018861151c565b81810360808301526116258187611582565b905081810360a08301526116398186611582565b905061164860c08301856115c7565b61165560e08301846114db565b9998505050505050505050565b61166b8161150a565b811461167657600080fd5b50565b60008135905061168881611662565b92915050565b600080604083850312156116a5576116a461146e565b5b60006116b385828601611679565b92505060206116c485828601611499565b9150509250929050565b60006020820190506116e360008301846114db565b92915050565b6000610100820190506116ff600083018b6114db565b61170c602083018a61151c565b818103604083015261171e8189611582565b905081810360608301526117328188611582565b905081810360808301526117468187611582565b905081810360a083015261175a8186611582565b905061176960c08301856115c7565b61177660e08301846114db565b9998505050505050505050565b6000602082840312156117995761179861146e565b5b60006117a784828501611679565b91505092915050565b600081519050919050565b600082825260208201905092915050565b6000819050602082019050919050565b6117e581611478565b82525050565b6117f48161150a565b82525050565b600082825260208201905092915050565b60006118168261152b565b61182081856117fa565b9350611830818560208601611547565b61183981611571565b840191505092915050565b61184d816115bb565b82525050565b60006101008301600083015161186c60008601826117dc565b50602083015161187f60208601826117dc565b50604083015161189260408601826117eb565b5060608301516118a560608601826117eb565b50608083015184820360808601526118bd828261180b565b91505060a083015184820360a08601526118d7828261180b565b91505060c08301516118ec60c0860182611844565b5060e08301516118ff60e08601826117dc565b508091505092915050565b60006119168383611853565b905092915050565b6000602082019050919050565b6000611936826117b0565b61194081856117bb565b935083602082028501611952856117cc565b8060005b8581101561198e578484038952815161196f858261190a565b945061197a8361191e565b925060208a01995050600181019050611956565b50829750879550505050505092915050565b600060208201905081810360008301526119ba818461192b565b905092915050565b600080fd5b600080fd5b7f4e487b7100000000000000000000000000000000000000000000000000000000600052604160045260246000fd5b611a0482611571565b810181811067ffffffffffffffff82111715611a2357611a226119cc565b5b80604052505050565b6000611a36611464565b9050611a4282826119fb565b919050565b600067ffffffffffffffff821115611a6257611a616119cc565b5b611a6b82611571565b9050602081019050919050565b82818337600083830152505050565b6000611a9a611a9584611a47565b611a2c565b905082815260208101848484011115611ab657611ab56119c7565b5b611ac1848285611a78565b509392505050565b600082601f830112611ade57611add6119c2565b5b8135611aee848260208601611a87565b91505092915050565b60008060008060808587031215611b1157611b1061146e565b5b600085013567ffffffffffffffff811115611b2f57611b2e611473565b5b611b3b87828801611ac9565b945050602085013567ffffffffffffffff811115611b5c57611b5b611473565b5b611b6887828801611ac9565b935050604085013567ffffffffffffffff811115611b8957611b88611473565b5b611b9587828801611ac9565b925050606085013567ffffffffffffffff811115611bb657611bb5611473565b5b611bc287828801611ac9565b91505092959194509250565b60008060008060808587031215611be857611be761146e565b5b6000611bf687828801611499565b945050602085013567ffffffffffffffff811115611c1757611c16611473565b5b611c2387828801611ac9565b935050604085013567ffffffffffffffff811115611c4457611c43611473565b5b611c5087828801611ac9565b925050606085013567ffffffffffffffff811115611c7157611c70611473565b5b611c7d87828801611ac9565b91505092959194509250565b7f4e487b7100000000000000000000000000000000000000000000000000000000600052602260045260246000fd5b60006002820490506001821680611cd057607f821691505b602082108103611ce357611ce2611c89565b5b50919050565b7f4e487b7100000000000000000000000000000000000000000000000000000000600052603260045260246000fd5b7f4e487b7100000000000000000000000000000000000000000000000000000000600052601160045260246000fd5b6000611d5282611478565b91507fffffffffffffffffffffffffffffffffffffffffffffffffffffffffffffffff8203611d8457611d83611d18565b5b600182019050919050565b60008190508160005260206000209050919050565b60006020601f8301049050919050565b600082821b905092915050565b600060088302611df17fffffffffffffffffffffffffffffffffffffffffffffffffffffffffffffffff82611db4565b611dfb8683611db4565b95508019841693508086168417925050509392505050565b6000819050919050565b6000611e38611e33611e2e84611478565b611e13565b611478565b9050919050565b6000819050919050565b611e5283611e1d565b611e66611e5e82611e3f565b848454611dc1565b825550505050565b600090565b611e7b611e6e565b611e86818484611e49565b505050565b5b81811015611eaa57611e9f600082611e73565b600181019050611e8c565b5050565b601f821115611eef57611ec081611d8f565b611ec984611da4565b81016020851015611ed8578190505b611eec611ee485611da4565b830182611e8b565b50505b505050565b600082821c905092915050565b6000611f1260001984600802611ef4565b1980831691505092915050565b6000611f2b8383611f01565b9150826002028217905092915050565b611f448261152b565b67ffffffffffffffff811115611f5d57611f5c6119cc565b5b611f678254611cb8565b611f72828285611eae565b600060209050601f831160018114611fa55760008415611f93578287015190505b611f9d8582611f1f565b865550612005565b601f198416611fb386611d8f565b60005b82811015611fdb57848901518255600182019150602085019450602081019050611fb6565b86831015611ff85784890151611ff4601f891682611f01565b8355505b6001600288020188555050505b505050505050565b6000604082019050612022600083018561151c565b81810360208301526120348184611582565b90509392505050565b7f496e76616c6964206e6f74696669636174696f6e204944000000000000000000600082015250565b6000612073601783611536565b915061207e8261203d565b602082019050919050565b600060208201905081810360008301526120a281612066565b9050919050565b7f4e6f7420617574686f72697a6564000000000000000000000000000000000000600082015250565b60006120df600e83611536565b91506120ea826120a9565b602082019050919050565b6000602082019050818103600083015261210e816120d2565b9050919050565b7f496e76616c6964206974656d2049440000000000000000000000000000000000600082015250565b600061214b600f83611536565b915061215682612115565b602082019050919050565b6000602082019050818103600083015261217a8161213e565b9050919050565b7f4974656d20616c7265616479206d61726b656420617320666f756e6400000000600082015250565b60006121b7601c83611536565b91506121c282612181565b602082019050919050565b600060208201905081810360008301526121e6816121aa565b905091905056fea2646970667358221220bec8c51430e2190f4682c3c52e10bb9452b237a7cff17769d2e911752709197664736f6c63430008130033",
  "linkReferences": {},
  "deployedLinkReferences": {}
}